:1044000055425C0135D0085A8245061C31400024D3
:104410003F4000000F9308249242061C5C012F834A
:104420009F4F4845001CF8233F4006000F93072488
:104430009242061C5C011F83CF43001CF9230441F8
:104440002453B240805A5C01B012CC445F42040253
:104450006FD2C24F04025F4202026FF2C24F0202E9
:10446000B24010004203B240409C5203B240D0021E
:10447000400332D232D0D0000F4332D0F000FD3FA3
:10448000304046450F120412044124525F42021C80
:104490005F53C24F021C5F4202026FE2C24F020230
:1044A0003F407419BF4000F000005F42021C4F9370
:1044B0000A201F42041C3F50204E824F041C1F4202
:1044C000041C824F520334413F4100130412044143
:1044D0002453C2430402C2430202F2430602C2430F
:1044E0000502C2430302F2430702C2432402C2434D
:1044F0002202F2432602C2432502C2432302F243B0
:1045000027028243240382432203B240FF00260392
:10451000F240A5FF6101824362011F4262013FF048
:10452000BFFF824F6201B2403301640182436601E2
:10453000B240010168011F426A013FF0FCFF824F57
:084540006A013441304100130F
:10FF8000FFFFFFFFFFFFFFFFFFFFFFFFFFFFFFFF81
:10FF9000FFFFFFFFFFFFFFFFFFFFFFFFFFFFFFFF71
:10FFA000FFFFFFFFFFFFFFFFFFFFFFFFFFFFFFFF61
:10FFB000FFFFFFFFFFFFFFFFFFFFFFFFFFFFFFFF51
:10FFC0008044804480448044804480448044804411
:10FFD0008044804480448044804480448044804401
:10FFE00080448044804480448044844480448044ED
:10FFF0008044804480448044804480448044004461
:0400000300004400B5
:00000001FF
